{"abi":[{"type":"constructor","inputs":[],"stateMutability":"nonpayable"},{"type":"function","name":"drip","inputs":[{"name":"token","type":"address","internalType":"address"}],"outputs":[],"stateMutability":"nonpayable"},{"type":"function","name":"owner","inputs":[],"outputs":[{"name":"","type":"address","internalType":"address"}],"stateMutability":"view"},{"type":"function","name":"renounceOwnership","inputs":[],"outputs":[],"stateMutability":"nonpayable"},{"type":"function","name":"setIsCooldownEnabled","inputs":[{"name":"newIsCooldownEnabled","type":"bool","internalType":"bool"}],"outputs":[],"stateMutability":"nonpayable"},{"type":"function","name":"transferOwnership","inputs":[{"name":"newOwner","type":"address","internalType":"address"}],"outputs":[],"stateMutability":"nonpayable"},{"type":"event","name":"CooldownUpdated","inputs":[{"name":"isCooldownEnabled","type":"bool","indexed":false,"internalType":"bool"}],"anonymous":false},{"type":"event","name":"OwnershipTransferred","inputs":[{"name":"previousOwner","type":"address","indexed":true,"internalType":"address"},{"name":"newOwner","type":"address","indexed":true,"internalType":"address"}],"anonymous":false},{"type":"error","name":"CooldownNotFinished","inputs":[{"name":"timestamp","type":"uint256","internalType":"uint256"}]},{"type":"error","name":"OwnableInvalidOwner","inputs":[{"name":"owner","type":"address","internalType":"address"}]},{"type":"error","name":"OwnableUnauthorizedAccount","inputs":[{"name":"account","type":"address","internalType":"address"}]},{"type":"error","name":"ReentrancyGuardReentrantCall","inputs":[]}],"bytecode":{"object":"0x60808060405234607e5760016000553315606857600154336001600160a01b0382167f8be0079c531659141344cd1fd0a4f28419497f9722a3daafe3b4186f6b6457e0600080a36001600160a81b0319163360ff60a01b19161760015561035a90816100848239f35b631e4fbdf760e01b600052600060045260246000fd5b600080fdfe6080604052600436101561001257600080fd5b6000803560e01c806318a96a891461028d57806367a5cd061461016b578063715018a61461010e5780638da5cb5b146100e55763f2fde38b1461005457600080fd5b346100e25760203660031901126100e2576004356001600160a01b038116908190036100e0576100826102fb565b80156100cc57600180546001600160a01b0319811683179091556001600160a01b03167f8be0079c531659141344cd1fd0a4f28419497f9722a3daafe3b4186f6b6457e08380a380f35b631e4fbdf760e01b82526004829052602482fd5b505b80fd5b50346100e257806003193601126100e2576001546040516001600160a01b039091168152602090f35b50346100e257806003193601126100e2576101276102fb565b600180546001600160a01b0319811690915581906001600160a01b03167f8be0079c531659141344cd1fd0a4f28419497f9722a3daafe3b4186f6b6457e08280a380f35b50346100e25760203660031901126100e2576004356001600160a01b03811691908290036100e257600281541461027e57600281553381526002602052604081205460ff60015460a01c1680610255575b61024257508181923b1561023f57819060246040518094819363b160ab9f60e01b83523360048401525af1801561023457610208575b5033815260026020524260408220556001815580f35b67ffffffffffffffff811161022057604052386101f2565b634e487b7160e01b82526041600452602482fd5b6040513d84823e3d90fd5b50fd5b637c7a7de960e11b825260045260249150fd5b50610e10810180821161026a574211156101bc565b634e487b7160e01b83526011600452602483fd5b633ee5aeb560e01b8152600490fd5b50346100e25760203660031901126100e2576004358015158091036100e05760207f27c64d5e8eecea170bac00a427c232c452155c520a62676b54b2f185d08a0673916102d86102fb565b6001805460ff60a01b191660a083901b60ff60a01b16179055604051908152a180f35b6001546001600160a01b0316330361030f57565b63118cdaa760e01b6000523360045260246000fdfea2646970667358221220e970a8d51855584d56ab23bca0258c35a99df7766285e9d171f602453388db8d64736f6c634300081b0033","linkReferences":{}},"methodIdentifiers":{"drip(address)":"67a5cd06","owner()":"8da5cb5b","renounceOwnership()":"715018a6","setIsCooldownEnabled(bool)":"18a96a89","transferOwnership(address)":"f2fde38b"},"id":71}