{"abi":[{"type":"constructor","inputs":[{"name":"_router","type":"address","internalType":"address"}],"stateMutability":"nonpayable"},{"type":"receive","stateMutability":"payable"},{"type":"function","name":"createProposal","inputs":[{"name":"destinationChainSelector","type":"uint256","internalType":"uint256"},{"name":"originChainSelector","type":"uint256","internalType":"uint256"},{"name":"endTimestamp","type":"uint256","internalType":"uint256"},{"name":"title","type":"string","internalType":"string"},{"name":"description","type":"string","internalType":"string"},{"name":"tokenName","type":"string","internalType":"string"}],"outputs":[],"stateMutability":"payable"},{"type":"function","name":"createProposalFee","inputs":[],"outputs":[{"name":"","type":"uint256","internalType":"uint256"}],"stateMutability":"view"},{"type":"function","name":"deleteProposalById","inputs":[{"name":"proposalId","type":"bytes32","internalType":"bytes32"}],"outputs":[],"stateMutability":"nonpayable"},{"type":"function","name":"deleteProposalByIndex","inputs":[{"name":"proposalIndex","type":"uint256","internalType":"uint256"}],"outputs":[],"stateMutability":"nonpayable"},{"type":"function","name":"deleteProposalByIndexOptimized","inputs":[{"name":"proposalIndex","type":"uint256","internalType":"uint256"}],"outputs":[],"stateMutability":"nonpayable"},{"type":"function","name":"deleteTokenData","inputs":[{"name":"tokenName","type":"string","internalType":"string"},{"name":"chainSelectors","type":"uint256[]","internalType":"uint256[]"}],"outputs":[],"stateMutability":"nonpayable"},{"type":"function","name":"getAmountDelegatedTokens","inputs":[{"name":"user","type":"address","internalType":"address"},{"name":"token","type":"address","internalType":"address"},{"name":"proposalId","type":"bytes32","internalType":"bytes32"},{"name":"isGetPastVotesEnabled","type":"bool","internalType":"bool"}],"outputs":[{"name":"","type":"uint256","internalType":"uint256"}],"stateMutability":"view"},{"type":"function","name":"getProposalIdsLength","inputs":[],"outputs":[{"name":"","type":"uint256","internalType":"uint256"}],"stateMutability":"view"},{"type":"function","name":"getSlicedProposals","inputs":[{"name":"startIndex","type":"uint256","internalType":"uint256"},{"name":"endIndex","type":"uint256","internalType":"uint256"}],"outputs":[{"name":"","type":"tuple[]","internalType":"struct EquitoVote.Proposal[]","components":[{"name":"startTimestamp","type":"uint256","internalType":"uint256"},{"name":"endTimestamp","type":"uint256","internalType":"uint256"},{"name":"numVotesYes","type":"uint256","internalType":"uint256"},{"name":"numVotesNo","type":"uint256","internalType":"uint256"},{"name":"numVotesAbstain","type":"uint256","internalType":"uint256"},{"name":"title","type":"string","internalType":"string"},{"name":"description","type":"string","internalType":"string"},{"name":"id","type":"bytes32","internalType":"bytes32"},{"name":"tokenName","type":"string","internalType":"string"},{"name":"startBlockNumber","type":"uint256","internalType":"uint256"},{"name":"originChainSelector","type":"uint256","internalType":"uint256"}]}],"stateMutability":"view"},{"type":"function","name":"getSlicedReversedProposals","inputs":[{"name":"startIndex","type":"int256","internalType":"int256"},{"name":"endIndex","type":"int256","internalType":"int256"}],"outputs":[{"name":"","type":"tuple[]","internalType":"struct EquitoVote.Proposal[]","components":[{"name":"startTimestamp","type":"uint256","internalType":"uint256"},{"name":"endTimestamp","type":"uint256","internalType":"uint256"},{"name":"numVotesYes","type":"uint256","internalType":"uint256"},{"name":"numVotesNo","type":"uint256","internalType":"uint256"},{"name":"numVotesAbstain","type":"uint256","internalType":"uint256"},{"name":"title","type":"string","internalType":"string"},{"name":"description","type":"string","internalType":"string"},{"name":"id","type":"bytes32","internalType":"bytes32"},{"name":"tokenName","type":"string","internalType":"string"},{"name":"startBlockNumber","type":"uint256","internalType":"uint256"},{"name":"originChainSelector","type":"uint256","internalType":"uint256"}]}],"stateMutability":"view"},{"type":"function","name":"getSlicedTokenNames","inputs":[{"name":"startIndex","type":"uint256","internalType":"uint256"},{"name":"endIndex","type":"uint256","internalType":"uint256"}],"outputs":[{"name":"","type":"string[]","internalType":"string[]"}],"stateMutability":"view"},{"type":"function","name":"getTokenNamesLength","inputs":[],"outputs":[{"name":"","type":"uint256","internalType":"uint256"}],"stateMutability":"view"},{"type":"function","name":"owner","inputs":[],"outputs":[{"name":"","type":"address","internalType":"address"}],"stateMutability":"view"},{"type":"function","name":"peers","inputs":[{"name":"","type":"uint256","internalType":"uint256"}],"outputs":[{"name":"lower","type":"bytes32","internalType":"bytes32"},{"name":"upper","type":"bytes32","internalType":"bytes32"}],"stateMutability":"view"},{"type":"function","name":"proposalIds","inputs":[{"name":"","type":"uint256","internalType":"uint256"}],"outputs":[{"name":"","type":"bytes32","internalType":"bytes32"}],"stateMutability":"view"},{"type":"function","name":"proposals","inputs":[{"name":"id","type":"bytes32","internalType":"bytes32"}],"outputs":[{"name":"startTimestamp","type":"uint256","internalType":"uint256"},{"name":"endTimestamp","type":"uint256","internalType":"uint256"},{"name":"numVotesYes","type":"uint256","internalType":"uint256"},{"name":"numVotesNo","type":"uint256","internalType":"uint256"},{"name":"numVotesAbstain","type":"uint256","internalType":"uint256"},{"name":"title","type":"string","internalType":"string"},{"name":"description","type":"string","internalType":"string"},{"name":"id","type":"bytes32","internalType":"bytes32"},{"name":"tokenName","type":"string","internalType":"string"},{"name":"startBlockNumber","type":"uint256","internalType":"uint256"},{"name":"originChainSelector","type":"uint256","internalType":"uint256"}],"stateMutability":"view"},{"type":"function","name":"receiveMessage","inputs":[{"name":"message","type":"tuple","internalType":"struct EquitoMessage","components":[{"name":"blockNumber","type":"uint256","internalType":"uint256"},{"name":"sourceChainSelector","type":"uint256","internalType":"uint256"},{"name":"sender","type":"tuple","internalType":"struct bytes64","components":[{"name":"lower","type":"bytes32","internalType":"bytes32"},{"name":"upper","type":"bytes32","internalType":"bytes32"}]},{"name":"destinationChainSelector","type":"uint256","internalType":"uint256"},{"name":"receiver","type":"tuple","internalType":"struct bytes64","components":[{"name":"lower","type":"bytes32","internalType":"bytes32"},{"name":"upper","type":"bytes32","internalType":"bytes32"}]},{"name":"hashedData","type":"bytes32","internalType":"bytes32"}]},{"name":"messageData","type":"bytes","internalType":"bytes"}],"outputs":[],"stateMutability":"payable"},{"type":"function","name":"renounceOwnership","inputs":[],"outputs":[],"stateMutability":"nonpayable"},{"type":"function","name":"setCreateProposalFee","inputs":[{"name":"newCreateProposalFee","type":"uint256","internalType":"uint256"}],"outputs":[],"stateMutability":"nonpayable"},{"type":"function","name":"setPeers","inputs":[{"name":"chainSelectors","type":"uint256[]","internalType":"uint256[]"},{"name":"addresses","type":"tuple[]","internalType":"struct bytes64[]","components":[{"name":"lower","type":"bytes32","internalType":"bytes32"},{"name":"upper","type":"bytes32","internalType":"bytes32"}]}],"outputs":[],"stateMutability":"nonpayable"},{"type":"function","name":"setTokenData","inputs":[{"name":"tokenName","type":"string","internalType":"string"},{"name":"chainSelectors","type":"uint256[]","internalType":"uint256[]"},{"name":"tokenAddresses","type":"address[]","internalType":"address[]"}],"outputs":[],"stateMutability":"nonpayable"},{"type":"function","name":"setVoteOnProposalFee","inputs":[{"name":"newVoteOnProposalFee","type":"uint256","internalType":"uint256"}],"outputs":[],"stateMutability":"nonpayable"},{"type":"function","name":"tokenData","inputs":[{"name":"tokenName","type":"string","internalType":"string"},{"name":"chainSelector","type":"uint256","internalType":"uint256"}],"outputs":[{"name":"tokenAddress","type":"address","internalType":"address"}],"stateMutability":"view"},{"type":"function","name":"tokenNames","inputs":[{"name":"","type":"uint256","internalType":"uint256"}],"outputs":[{"name":"","type":"string","internalType":"string"}],"stateMutability":"view"},{"type":"function","name":"transferFee","inputs":[{"name":"destination","type":"address","internalType":"address"}],"outputs":[],"stateMutability":"nonpayable"},{"type":"function","name":"transferOwnership","inputs":[{"name":"newOwner","type":"address","internalType":"address"}],"outputs":[],"stateMutability":"nonpayable"},{"type":"function","name":"updateTokenData","inputs":[{"name":"tokenName","type":"string","internalType":"string"},{"name":"chainSelector","type":"uint256","internalType":"uint256"},{"name":"tokenAddress","type":"address","internalType":"address"}],"outputs":[],"stateMutability":"nonpayable"},{"type":"function","name":"userVotes","inputs":[{"name":"user","type":"address","internalType":"address"},{"name":"proposalId","type":"bytes32","internalType":"bytes32"}],"outputs":[{"name":"votes","type":"uint256","internalType":"uint256"}],"stateMutability":"view"},{"type":"function","name":"voteOnProposal","inputs":[{"name":"destinationChainSelector","type":"uint256","internalType":"uint256"},{"name":"proposalId","type":"bytes32","internalType":"bytes32"},{"name":"numVotes","type":"uint256","internalType":"uint256"},{"name":"voteOption","type":"uint8","internalType":"enum EquitoVote.VoteOption"},{"name":"tokenAddress","type":"address","internalType":"address"},{"name":"isGetPastVotesEnabled","type":"bool","internalType":"bool"}],"outputs":[],"stateMutability":"payable"},{"type":"function","name":"voteOnProposalFee","inputs":[],"outputs":[{"name":"","type":"uint256","internalType":"uint256"}],"stateMutability":"view"},{"type":"event","name":"CreateProposalFeeUpdated","inputs":[{"name":"newCreateProposaFee","type":"uint256","indexed":false,"internalType":"uint256"}],"anonymous":false},{"type":"event","name":"CreateProposalMessageReceived","inputs":[{"name":"proposalId","type":"bytes32","indexed":false,"internalType":"bytes32"}],"anonymous":false},{"type":"event","name":"CreateProposalMessageSent","inputs":[{"name":"proposalId","type":"bytes32","indexed":true,"internalType":"bytes32"},{"name":"destinationChainSelector","type":"uint256","indexed":true,"internalType":"uint256"},{"name":"messageHash","type":"bytes32","indexed":false,"internalType":"bytes32"}],"anonymous":false},{"type":"event","name":"OwnershipTransferred","inputs":[{"name":"previousOwner","type":"address","indexed":true,"internalType":"address"},{"name":"newOwner","type":"address","indexed":true,"internalType":"address"}],"anonymous":false},{"type":"event","name":"TokenDataDeleted","inputs":[{"name":"tokenName","type":"string","indexed":false,"internalType":"string"},{"name":"chainSelectors","type":"uint256[]","indexed":false,"internalType":"uint256[]"}],"anonymous":false},{"type":"event","name":"TokenDataUpdated","inputs":[{"name":"tokenName","type":"string","indexed":true,"internalType":"string"},{"name":"chainSelectors","type":"uint256[]","indexed":false,"internalType":"uint256[]"},{"name":"tokenAddresses","type":"address[]","indexed":false,"internalType":"address[]"}],"anonymous":false},{"type":"event","name":"TokenDataUpdated","inputs":[{"name":"tokenName","type":"string","indexed":false,"internalType":"string"},{"name":"chainSelector","type":"uint256","indexed":false,"internalType":"uint256"},{"name":"tokenAddress","type":"address","indexed":false,"internalType":"address"}],"anonymous":false},{"type":"event","name":"VoteOnProposalFeeUpdated","inputs":[{"name":"newVoteOnProposalFee","type":"uint256","indexed":false,"internalType":"uint256"}],"anonymous":false},{"type":"event","name":"VoteOnProposalMessageReceived","inputs":[{"name":"proposalId","type":"bytes32","indexed":true,"internalType":"bytes32"},{"name":"numVotes","type":"uint256","indexed":false,"internalType":"uint256"},{"name":"voteOption","type":"uint8","indexed":false,"internalType":"enum EquitoVote.VoteOption"}],"anonymous":false},{"type":"event","name":"VoteOnProposalMessageSent","inputs":[{"name":"destinationChainSelector","type":"uint256","indexed":true,"internalType":"uint256"},{"name":"messageHash","type":"bytes32","indexed":false,"internalType":"bytes32"}],"anonymous":false},{"type":"error","name":"CallFailed","inputs":[{"name":"destination","type":"address","internalType":"address"}]},{"type":"error","name":"InvalidLength","inputs":[]},{"type":"error","name":"InvalidMessageSender","inputs":[]},{"type":"error","name":"InvalidProposal","inputs":[{"name":"proposalId","type":"bytes32","internalType":"bytes32"}]},{"type":"error","name":"InvalidRouter","inputs":[{"name":"router","type":"address","internalType":"address"}]},{"type":"error","name":"InvalidToken","inputs":[{"name":"tokenName","type":"string","internalType":"string"},{"name":"sourceChainSelector","type":"uint256","internalType":"uint256"},{"name":"tokenAddress","type":"address","internalType":"address"}]},{"type":"error","name":"LengthMismatch","inputs":[{"name":"firstArray","type":"uint256","internalType":"uint256"},{"name":"secondArray","type":"uint256","internalType":"uint256"}]},{"type":"error","name":"NotEnoughDelegatedTokens","inputs":[{"name":"numberUserVotes","type":"uint256","internalType":"uint256"},{"name":"numberUserDelegatedTokens","type":"uint256","internalType":"uint256"}]},{"type":"error","name":"OwnableInvalidOwner","inputs":[{"name":"owner","type":"address","internalType":"address"}]},{"type":"error","name":"OwnableUnauthorizedAccount","inputs":[{"name":"account","type":"address","internalType":"address"}]},{"type":"error","name":"ProposalNotFinished","inputs":[{"name":"proposalId","type":"bytes32","internalType":"bytes32"},{"name":"endTimestamp","type":"uint256","internalType":"uint256"}]},{"type":"error","name":"ReentrancyGuardReentrantCall","inputs":[]},{"type":"error","name":"RouterAddressCannotBeZero","inputs":[]},{"type":"error","name":"TokenAlreadySet","inputs":[{"name":"tokenName","type":"string","internalType":"string"}]}],"bytecode":{"object":"0x60a03461010a57601f612cf838819003918201601f19168301916001600160401b0383118484101761010f5780849260209460405283398101031261010a57516001600160a01b0381169081900361010a5733156100f45760008054336001600160a01b0319821681178355604051939290916001600160a01b0316907f8be0079c531659141344cd1fd0a4f28419497f9722a3daafe3b4186f6b6457e09080a380156100e357608052600160025564e8d4a5100060035564174876e800600455612bd290816101268239608051818181610ad301528181610e710152611d090152f35b635008268360e01b60005260046000fd5b631e4fbdf760e01b600052600060045260246000fd5b600080fd5b634e487b7160e01b600052604160045260246000fdfe6080604052600436101561001b575b361561001957600080fd5b005b60003560e01c806305287c5e14611f2057806306a06e9c14611da85780631601947e14611b7957806320e5408214611a5f578063310495ab14611a0a57806332ed5b12146119045780633a448d48146118955780634d55ff531461184e57806354c412911461181057806359a1aae1146116fd5780636a99b0291461162e578063715018a6146115d5578063746a7d851461158d578063811aa2701461151a578063879d182d14610e385780638da5cb5b14610e0f5780639b644a2314610dd75780639e9a519514610d4a578063ab266e1014610cfe578063af3951f014610ce0578063be4f3e8f14610cab578063c9f0db3414610c8d578063d48c2c4c14610c6f578063ea8c4bcf14610bef578063ec848b061461093b578063ee7918d2146105c1578063f22d2326146105a3578063f2fde38b1461051a578063f98d123f146103d65763fda9b9080361000e57346103d15760403660031901126103d1576004356001600160401b0381116103d15761019a903690600401611fe4565b6024356001600160401b0381116103d1576101b99036906004016122da565b916101c2612842565b825160005b81811061038d5750506009549160005b8381106102d7575b5090915060095480156102c15760001901926101fa84612108565b9190916102ab577fefaf77d88e60c30240e6fe9fb733dc529848ea294d214211feaa6bf8d94109209482610231610262945461213e565b9081610267575b5050600955610254604051948594604086526040860191612609565b908382036020850152612712565b0390a1005b81601f6000931160011461027f5750555b3880610238565b8183526020832061029b91601f0160051c8101906001016126b6565b8082528160208120915555610278565b634e487b7160e01b600052600060045260246000fd5b634e487b7160e01b600052603160045260246000fd5b604051602081019060208252610303816102f5604082018789612609565b03601f198101835282612232565b51902061030f82612108565b5060405161032d816102f56020820194602086526040830190612178565b5190201461033d576001016101d7565b90919260001981019081116103775761035861035f91612108565b5091612108565b9190916102ab5761036f91612746565b8190386101df565b634e487b7160e01b600052601160045260246000fd5b6001906040518585823760208187810160088152030190206103af8288612503565b5160005260205260406000206001600160601b0360a01b8154169055016101c7565b600080fd5b346103d15760403660031901126103d15760243560043581810360008312801583831316838312909116176103775761040e9061256c565b906104176125bc565b60005b848313610433576040518061042f86826120a8565b0390f35b6001906104408484612503565b5160005260066020526040600020600a6040519161045d836121fb565b805483528481015460208401526002810154604084015260038101546060840152600481015460808401526040516104a38161049c8160058601612178565b0382612232565b60a08401526040516104bc8161049c8160068601612178565b60c0840152600781015460e08401526040516104df8161049c8160088601612178565b610100840152600981015461012084015201546101408201526105028287612503565b5261050d8186612503565b500191600019019161041a565b346103d15760203660031901126103d157610533611f70565b61053b612842565b6001600160a01b0316801561058d57600080546001600160a01b03198116831782556001600160a01b0316907f8be0079c531659141344cd1fd0a4f28419497f9722a3daafe3b4186f6b6457e09080a3005b631e4fbdf760e01b600052600060045260246000fd5b346103d15760003660031901126103d1576020600354604051908152f35b346103d15760603660031901126103d1576004356001600160401b0381116103d1576105f1903690600401611fe4565b906024356001600160401b0381116103d1576106119036906004016122da565b90604435926001600160401b0384116103d157366023850112156103d15783600401359161063e836122c3565b9461064c6040519687612232565b83865260208601906024829560051b820101903682116103d157602401915b81831061091b5750505060095460005b81811061089c57505083518551808203610884575060005b818110610823575050600954600160401b81101561080d578060016106bb9201600955612108565b6102ab576001600160401b03831161080d576106e1836106db835461213e565b836126cd565b600083601f81116001146107aa57806107109260009161079f575b508160011b916000199060031b1c19161790565b90555b81604051928392833781016000815203902092602061073d60405194604086526040860190612712565b9184830382860152519182815201919060005b81811061078057857f13727991a0ba800afe6ee9534118a4451a8c4851ca38c5d0faababfd60c0978286860387a2005b82516001600160a01b0316845260209384019390920191600101610750565b9050840135896106fc565b50818152602081209084601f198116825b8181106107f25750106107d8575b5050600183811b019055610713565b830135600019600386901b60f8161c1916905586806107c9565b868401358555600190940193602093840193889350016107bb565b634e487b7160e01b600052604160045260246000fd5b6001906001600160a01b03610838828a612503565b5116604051868682376020818881016008815203019020610859838a612503565b51600052602052604060002090838060a01b03166001600160601b0360a01b82541617905501610693565b906355c5b3e360e11b60005260045260245260446000fd5b6040516020810190602082526108ba816102f5604082018989612609565b5190206108c682612108565b506040516108e4816102f56020820194602086526040830190612178565b519020146108f45760010161067b565b6040516311f125e160e01b81526020600482015280610917602482018787612609565b0390fd5b82356001600160a01b03811681036103d15781526020928301920161066b565b60c03660031901126103d15760043560643560443560243560038310156103d1576084356001600160a01b038116908181036103d15760a43580151581036103d1576109ac90610989612822565b336000526007602052604060002085600052602052846040600020549333612337565b90816109b88287612686565b11610bd857505033600052600760205260406000208260005260205260406000206109e4848254612686565b9055846000526001602052604060002090600160405192610a0484612217565b805484520154906020830191825260405163313ce56760e01b8152602081600481855afa908115610b7257600091610b94575b5060ff16604d811161037757600a0a948515610b7e57610acf96602096610a77926040519760018a8a015260408901520460608701526080860190612693565b60a084015260a08352610a8b60c084612232565b610a97600454346124f6565b916040519586948593849363dc20313760e01b8552516004850152516024840152886044840152608060648401526084830190611fbf565b03917f00000000000000000000000000000000000000000000000000000000000000006001600160a01b03165af1908115610b7257600091610b3f575b5060207fe9842f1c28665fd53f08cf61eac8a2490f5cc4a8c4b4f8f758c65bd289ce1a6491604051908152a26001600255005b90506020813d602011610b6a575b81610b5a60209383612232565b810103126103d157516020610b0c565b3d9150610b4d565b6040513d6000823e3d90fd5b634e487b7160e01b600052601260045260246000fd5b6020813d602011610bd0575b81610bad60209383612232565b81010312610bcc57519060ff82168203610bc9575060ff610a37565b80fd5b5080fd5b3d9150610ba0565b63b488297560e01b60005260045260245260446000fd5b346103d15760203660031901126103d157610c08611f70565b610c10612842565b600080808047855af13d15610c6a573d610c2981612253565b90610c376040519283612232565b8152600060203d92013e5b15610c4957005b63201be19160e01b60009081526001600160a01b0391909116600452602490fd5b610c42565b346103d15760003660031901126103d1576020600954604051908152f35b346103d15760003660031901126103d1576020600454604051908152f35b346103d15760203660031901126103d15760043560005260016020526040806000206001815491015482519182526020820152f35b346103d15760003660031901126103d1576020600554604051908152f35b346103d15760203660031901126103d1577f46a6a65343e66c2992b251fd6d8316eb6121cca2ddd5b0ce0e0b5d928ae5e7d16020600435610d3d612842565b80600355604051908152a1005b346103d15760203660031901126103d157600435610d66612842565b610d6e6125bc565b610d81610d7b8383612503565b5161286b565b8051600019810190811161037757808303610d9f575b61001961262a565b610daf610db691610dcd93612503565b5192612123565b819391549060031b91821b91600019901b19161790565b9055808080610d97565b346103d15760203660031901126103d1576004356005548110156103d157610e00602091612123565b90549060031b1c604051908152f35b346103d15760003660031901126103d1576000546040516001600160a01b039091168152602090f35b366003190161012081126103d157610100136103d157610104356001600160401b0381116103d157610e6e903690600401611fe4565b907f00000000000000000000000000000000000000000000000000000000000000006001600160a01b03163303611505576024359182600052600160205260206040600020604051610ebf81612217565b60018254928383520154928391015260443514908115916114f8575b5015610ef257637fee69a160e01b60005260046000fd5b810191818303602081126103d15782359160028310156103d157600092806113445750506040136103d1576103d1576020810135906001600160401b0382116103d1570190610160828203126103d157604051610f4e816121fb565b823581526020810192602081013584526040820193604082013585526060830160608301358152608084016080840135815260a08401356001600160401b0381116103d15786610f9f9186016122a5565b9060a0860191825260c08501356001600160401b0381116103d15787610fc69187016122a5565b9260c0870193845260e087019760e08701358952610100870135906001600160401b0382116103d157610ffa9188016122a5565b986101008801998a526101208801956101208801358752610140808a0198013588528951600554600160401b81101561080d57611041610db6826001859401600555612123565b905560005260066020526040600020985189555160018901555160028801555160038701555160048601556005850190518051906001600160401b03821161080d5761109782611091855461213e565b856126cd565b602090601f83116001146112dd576110c89291600091836112d2575b50508160011b916000199060031b1c19161790565b90555b51805160068501916001600160401b03821161080d576110ef82611091855461213e565b602090601f831160011461126b5761111f9291600091836112605750508160011b916000199060031b1c19161790565b90555b835160078401556008830194519485516001600160401b03811161080d576111548161114e845461213e565b846126cd565b6020601f82116001146111d057916111ae82600a95936020999897957f61475a38b464ce3615d53948c5874f7a48bca41cb4d8b8e1c10898be9f2f53619b6000926111c55750508160011b916000199060031b1c19161790565b90555b5160098401555191015551604051908152a1005b015190508b806110b3565b601f1982169783600052816000209860005b8181106112485750927f61475a38b464ce3615d53948c5874f7a48bca41cb4d8b8e1c10898be9f2f5361996020999897959360019383600a99971061122f575b505050811b0190556111b1565b015160001960f88460031b161c191690558a8080611222565b838301518b556001909a0199602093840193016111e2565b0151905089806110b3565b90601f1983169184600052816000209260005b8181106112ba57509084600195949392106112a1575b505050811b019055611122565b015160001960f88460031b161c19169055888080611294565b9293602060018192878601518155019501930161127e565b015190508a806110b3565b90601f1983169184600052816000209260005b81811061132c5750908460019594939210611313575b505050811b0190556110cb565b015160001960f88460031b161c19169055898080611306565b929360206001819287860151815501950193016112f0565b9093945060019192501461135457005b60a0136103d15760009160208101359260408201359260608301359260038410156114f4576080013560018060a01b0381168091036114f457906113b09186845260066020526113b76008604086200160405194858092612178565b0384612232565b801580156114b6575b6114815750505091611426604092847f543d055c2fe80dc4433bce443dcbb59bfbc94486d506a805d551b645f8cb823695508115600014611429578481886002935260066020522001611414848254612686565b90555b83519283526020830190612693565ba2005b6001820361145157848188600393526006602052200161144a848254612686565b9055611417565b60028214611460575b50611417565b8481886004935260066020522001611479848254612686565b90558661145a565b604051633c33a57360e21b815260606004820152935083926114a7906064850190611fbf565b91602484015260448301520390fd5b5060405160208185516114cc8183858a01611f9c565b60089082019081520301902082855260205260408420546001600160a01b03168114156113c0565b8280fd5b9050606435141584610edb565b6335fdcccd60e21b6000523360045260246000fd5b346103d15760403660031901126103d1576004356001600160401b0381116103d157602061154f6115629236906004016122a5565b8160405193828580945193849201611f9c565b81016008815203019020602435600052602052602060018060a01b0360406000205416604051908152f35b346103d15760403660031901126103d1576001600160a01b036115ae611f70565b16600052600760205260406000206024356000526020526020604060002054604051908152f35b346103d15760003660031901126103d1576115ee612842565b600080546001600160a01b0319811682556001600160a01b03167f8be0079c531659141344cd1fd0a4f28419497f9722a3daafe3b4186f6b6457e08280a3005b346103d15760603660031901126103d1576004356001600160401b0381116103d15761165e903690600401611fe4565b6044356001600160a01b038116929190602435908490036103d1577f891d24d2388c666de5c53835edbff683270ac5149b68c7c7036c1603308e1ba2936116a3612842565b604051838582376020818581016008815203019020826000526020526040600020816001600160601b0360a01b8254161790556116ed604051948594606086526060860191612609565b91602084015260408301520390a1005b346103d15760403660031901126103d1576004356001600160401b0381116103d157366023820112156103d15780600401356001600160401b0381116103d1573660248260051b840101116103d157602435916001600160401b0383116103d157366023840112156103d15782600401356001600160401b0381116103d1573660248260061b860101116103d157611793612842565b61179b612842565b8083036117ff5760005b8381101561001957818110156117e9578060019160061b86018260446040600060248660051b8a0101358152836020522092602481013584550135910155016117a5565b634e487b7160e01b600052603260045260246000fd5b63251f56a160e21b60005260046000fd5b346103d15760203660031901126103d15761001960043561182f612842565b6118376125bc565b90611845610d7b8284612503565b60055490612b2b565b346103d15760203660031901126103d157611867612842565b7fb7a2c92119dba84ca177b61bfad4106a941e055dfb5bcf544e82b366f3fd6f6160206040516004358152a1005b346103d15760203660031901126103d1576004356118b1612842565b6118ba8161286b565b60006005546118c76125bc565b9160005b8281106118de575b506100199350612b2b565b6118e88185612503565b5185146118f7576001016118cb565b90506100199350846118d3565b346103d15760203660031901126103d15760043560005260066020526020604060002080549060018101546119f9600283015460086119e560066119d76005600389015460048a0154906119628b6113b06040518096819301612178565b61197d8b6119766040518098819301612178565b0386612232565b60078b01549761199e8c611997604051809b819301612178565b0389612232565b600a60098d01549c01549a6040519e8f9e8f908152015260408d015260608c015260808b015261016060a08b01526101608a0190611fbf565b9088820360c08a0152611fbf565b9160e0870152858203610100870152611fbf565b916101208401526101408301520390f35b346103d15760203660031901126103d1576004356009548110156103d157611a3190612108565b6102ab5761049c611a4b61042f9260405192838092612178565b604051918291602083526020830190611fbf565b346103d157611a6d36611f86565b611a7f611a7a83836124f6565b61256c565b91611a886125bc565b905b828110611a9f576040518061042f86826120a8565b80611aac60019284612503565b5160005260066020526040600020600a60405191611ac9836121fb565b80548352848101546020840152600281015460408401526003810154606084015260048101546080840152604051611b088161049c8160058601612178565b60a0840152604051611b218161049c8160068601612178565b60c0840152600781015460e0840152604051611b448161049c8160088601612178565b61010084015260098101546101208401520154610140820152611b678287612503565b52611b728186612503565b5001611a8a565b60c03660031901126103d1576004356064356001600160401b0381116103d157611ba7903690600401611fe4565b6084356001600160401b0381116103d157611bc6903690600401611fe4565b60a435916001600160401b0383116103d157611d0593611c7f6102f593611cb193611c6d611bfa6020983690600401611fe4565b929093611c05612822565b60408051338c8201908152426020820152611c6192909190611c2a90829084016102f5565b5190209c60405198611c3b8a6121fb565b428a526044358d8b0152600060408b0152600060608b0152600060808b0152369161226e565b60a0880152369161226e565b60c08501528860e0850152369161226e565b610100820152436101208201526024356101408201526040519283916000868401526040808401526060830190612011565b611cbd600354346124f6565b8560005260018352600160406000206040519586948593849363dc20313760e01b85528054600486015201546024840152896044840152608060648401526084830190611fbf565b03917f00000000000000000000000000000000000000000000000000000000000000006001600160a01b03165af1908115610b7257600091611d75575b5060207ffa7bc04bdea04f5db18c500c045ab498d76ff3066713ede14963f5e99954642a91604051908152a36001600255005b90506020813d602011611da0575b81611d9060209383612232565b810103126103d157516020611d42565b3d9150611d83565b346103d157611db636611f86565b611dc082826124f6565b91611dca836122c3565b92611dd86040519485612232565b808452611de7601f19916122c3565b0160005b818110611f0f575050600954611e00816122c3565b90611e0e6040519283612232565b8082526020820160096000527f6e1540171b6c0c960b71a7020d9f60077f6af931a8bbf590da0223dacf75c7af6000915b838310611eea575050505060005b838310611ebc57846040518091602082016020835281518091526040830190602060408260051b8601019301916000905b828210611e8d57505050500390f35b91936001919395506020611eac8192603f198a82030186528851611fbf565b9601920192018594939192611e7e565b60018091611eca8585612503565b51611ed58289612503565b52611ee08188612503565b5001920191611e4d565b600160208192604051611f018161049c8189612178565b815201920192019190611e3f565b806060602080938801015201611deb565b346103d15760803660031901126103d157611f39611f70565b6024356001600160a01b03811681036103d15760643580151581036103d157602092611f689260443591612337565b604051908152f35b600435906001600160a01b03821682036103d157565b60409060031901126103d1576004359060243590565b60005b838110611faf5750506000910152565b8181015183820152602001611f9f565b90602091611fd881518092818552858086019101611f9c565b601f01601f1916010190565b9181601f840112156103d1578235916001600160401b0383116103d157602083818601950101116103d157565b9081518152602082015160208201526040820151604082015260608201516060820152608082015160808201526101408061209361207561206360a087015161016060a0880152610160870190611fbf565b60c087015186820360c0880152611fbf565b60e086015160e0860152610100860151858203610100870152611fbf565b93610120810151610120850152015191015290565b602081016020825282518091526040820191602060408360051b8301019401926000915b8383106120db57505050505090565b90919293946020806120f9600193603f198682030187528951612011565b970193019301919392906120cc565b6009548110156117e957600960005260206000200190600090565b6005548110156117e957600560005260206000200190600090565b90600182811c9216801561216e575b602083101461215857565b634e487b7160e01b600052602260045260246000fd5b91607f169161214d565b600092918154916121888361213e565b80835292600181169081156121de57506001146121a457505050565b60009081526020812093945091925b8383106121c4575060209250010190565b6001816020929493945483858701015201910191906121b3565b915050602093945060ff929192191683830152151560051b010190565b61016081019081106001600160401b0382111761080d57604052565b604081019081106001600160401b0382111761080d57604052565b90601f801991011681019081106001600160401b0382111761080d57604052565b6001600160401b03811161080d57601f01601f191660200190565b92919261227a82612253565b916122886040519384612232565b8294818452818301116103d1578281602093846000960137010152565b9080601f830112156103d1578160206122c09335910161226e565b90565b6001600160401b03811161080d5760051b60200190565b9080601f830112156103d15781356122f1816122c3565b926122ff6040519485612232565b81845260208085019260051b8201019283116103d157602001905b8282106123275750505090565b813581526020918201910161231a565b92909190600090156124785750916020916124149360405184810190634bf5d7e9640100000000600160c01b0385881b161760401b825285815261237c604082612232565b51902060405185810190868252601d60408201527f6d6f64653d626c6f636b6e756d6265722666726f6d3d64656661756c740000006060820152606081526123c5608082612232565b519020036124625760005260068352600960406000200154915b604051630748d63560e31b81526001600160a01b03909116600482015260248101929092529092839190829081906044820190565b03916001600160a01b03165afa908115610b7257600091612433575090565b90506020813d60201161245a575b8161244e60209383612232565b810103126103d1575190565b3d9150612441565b60005260068352600160406000200154916123df565b6040516309ab24eb60e41b81526001600160a01b039485166004820152909390926020925083916024918391165afa9182156124ea5780926124b957505090565b9091506020823d6020116124e2575b816124d560209383612232565b81010312610bc957505190565b3d91506124c8565b604051903d90823e3d90fd5b9190820391821161037757565b80518210156117e95760209160051b010190565b60405190612524826121fb565b600061014083828152826020820152826040820152826060820152826080820152606060a0820152606060c08201528260e08201526060610100820152826101208201520152565b90612576826122c3565b6125836040519182612232565b8281528092612594601f19916122c3565b019060005b8281106125a557505050565b6020906125b0612517565b82828501015201612599565b604051906005548083528260208101600560005260206000209260005b8181106125f05750506125ee92500383612232565b565b84548352600194850194879450602090930192016125d9565b908060209392818452848401376000828201840152601f01601f1916010190565b60055480156102c1576000190160006005548210156126725760059081905260007f036b6384b5eca791c62761152d0c79bb0604c104a5fb6f4eb0703f3154bb3db083015555565b634e487b7160e01b81526032600452602490fd5b9190820180921161037757565b9060038210156126a05752565b634e487b7160e01b600052602160045260246000fd5b8181106126c1575050565b600081556001016126b6565b9190601f81116126dc57505050565b6125ee926000526020600020906020601f840160051c83019310612708575b601f0160051c01906126b6565b90915081906126fb565b906020808351928381520192019060005b8181106127305750505090565b8251845260209384019390920191600101612723565b91909182811461281d5761275a835461213e565b6001600160401b03811161080d576127768161114e845461213e565b600093601f82116001146127b7576127a892939482916000926127ac5750508160011b916000199060031b1c19161790565b9055565b0154905038806110b3565b845260208085208386529085209094601f198316815b818110612805575095836001959697106127ec575b505050811b019055565b015460001960f88460031b161c191690553880806127e2565b9192600180602092868b0154815501940192016127cd565b509050565b60028054146128315760028055565b633ee5aeb560e01b60005260046000fd5b6000546001600160a01b0316330361285657565b63118cdaa760e01b6000523360045260246000fd5b612873612517565b90600052600660205260406000209080518255602081015160018301556040810151600283015560608101516003830155608081015160048301556005820160a08201518051906001600160401b03821161080d576128d682611091855461213e565b602090601f8311600114612ac4576129069291600091836129e45750508160011b916000199060031b1c19161790565b90555b6006820160c08201518051906001600160401b03821161080d5761293182611091855461213e565b602090601f8311600114612a5d576129619291600091836129e45750508160011b916000199060031b1c19161790565b90555b60e08101516007830155600882016101008201518051906001600160401b03821161080d5761299782611091855461213e565b602090601f83116001146129ef5782600a959361014095936129cf936000926129e45750508160011b916000199060031b1c19161790565b90555b61012081015160098501550151910155565b0151905038806110b3565b90601f1983169184600052816000209260005b818110612a455750926001928592600a9896610140989610612a2c575b505050811b0190556129d2565b015160001960f88460031b161c19169055388080612a1f565b92936020600181928786015181550195019301612a02565b90601f1983169184600052816000209260005b818110612aac5750908460019594939210612a93575b505050811b019055612964565b015160001960f88460031b161c19169055388080612a86565b92936020600181928786015181550195019301612a70565b90601f1983169184600052816000209260005b818110612b135750908460019594939210612afa575b505050811b019055612909565b015160001960f88460031b161c19169055388080612aed565b92936020600181928786015181550195019301612ad7565b600019820191821191908261037757818103612b4e575b505050506125ee61262a565b92939192835b6103775781811015612b8e57600181019081811161037757612b7860019287612503565b51612b85610db683612123565b90550183612b54565b505091505038808080612b4256fea26469706673582212206bb8dc8fced9e3aeb496d6c43a8f9537232a7aa1e860ebb5af018e181b1e3d2a64736f6c634300081b0033","linkReferences":{}},"methodIdentifiers":{"createProposal(uint256,uint256,uint256,string,string,string)":"1601947e","createProposalFee()":"f22d2326","deleteProposalById(bytes32)":"3a448d48","deleteProposalByIndex(uint256)":"54c41291","deleteProposalByIndexOptimized(uint256)":"9e9a5195","deleteTokenData(string,uint256[])":"fda9b908","getAmountDelegatedTokens(address,address,bytes32,bool)":"05287c5e","getProposalIdsLength()":"af3951f0","getSlicedProposals(uint256,uint256)":"20e54082","getSlicedReversedProposals(int256,int256)":"f98d123f","getSlicedTokenNames(uint256,uint256)":"06a06e9c","getTokenNamesLength()":"d48c2c4c","owner()":"8da5cb5b","peers(uint256)":"be4f3e8f","proposalIds(uint256)":"9b644a23","proposals(bytes32)":"32ed5b12","receiveMessage((uint256,uint256,(bytes32,bytes32),uint256,(bytes32,bytes32),bytes32),bytes)":"879d182d","renounceOwnership()":"715018a6","setCreateProposalFee(uint256)":"ab266e10","setPeers(uint256[],(bytes32,bytes32)[])":"59a1aae1","setTokenData(string,uint256[],address[])":"ee7918d2","setVoteOnProposalFee(uint256)":"4d55ff53","tokenData(string,uint256)":"811aa270","tokenNames(uint256)":"310495ab","transferFee(address)":"ea8c4bcf","transferOwnership(address)":"f2fde38b","updateTokenData(string,uint256,address)":"6a99b029","userVotes(address,bytes32)":"746a7d85","voteOnProposal(uint256,bytes32,uint256,uint8,address,bool)":"ec848b06","voteOnProposalFee()":"c9f0db34"},"id":70}